:020000040800F2
:1000000000280020211E0008B11D0008B71D0008AF
:10001000BD1D0008C31D0008C91D00080000000028
:10002000000000000000000000000000CF1D0008DC
:10003000DB1D000800000000E71D0008F31D00089C
:10004000691E0008691E0008691E0008691E000874
:10005000691E0008691E0008691E0008691E000864
:10006000691E0008691E0008691E0008691E000854
:10007000691E0008691E0008691E0008691E000844
:10008000691E0008691E0008691E0008691E000834
:10009000691E0008691E0008691E0008691E000824
:1000A000691E0008691E0008691E0008691E000814
:1000B000011E0008691E000800000000691E0008FB
:1000C000691E00080000000000000000691E000812
:1000D00000000000691E0008691E00080000000002
:1000E000691E0008691E0008691E00080000000063
:1000F0000000000000000000000000000000000000
:0C01000000000000000000005FF808F1A3
:10010C0010B5054C237833B9044B13B10448AFF345
:10011C0000800123237010BD6C0000200000000043
:10012C00C434000808B5034B1BB103490348AFF3B3
:10013C00008008BD0000000070000020C4340008DE
:10014C0080B400AF064B1B68012B04D1044B00227A
:10015C001A60012300E000231846BD4680BC70479E
:10016C008800002080B400AF064B1B68012B04D123
:10017C00044B00221A60012300E000231846BD4600
:10018C0080BC70478C00002080B400AF064B1B680D
:10019C00012B04D1044B00221A60012300E0002340
:1001AC001846BD4680BC70479000002080B400AF5C
:1001BC00034B01221A6000BFBD4680BC704700BFD4
:1001CC008800002080B400AF034B01221A6000BFEE
:1001DC00BD4680BC704700BF8C00002080B400AFCF
:1001EC00034B01221A6000BFBD4680BC704700BFA4
:1001FC009000002080B500AF5C4B5B685B4A1360DD
:10020C005A4B9B68594A53604FF40051584802F0BE
:10021C0013F903461A46554B9A60544B1A68534BC4
:10022C005B689A4225D1514B5A68504B9B689A4255
:10023C001FD14E4BDA684D4B9B689A420DD04B4BFD
:10024C009B684A4AD360494B9B68002B11D1FFF73E
:10025C00ADFF484BC8221A600BE0464B1B68013BB4
:10026C00444A1360434B1B68002B02DC3F4B0122BA
:10027C00DA60414B5B68404A13603F4B9B683E4AD7
:10028C0053604FF480413A4802F0D6F803461A46C0
:10029C00394B9A60384B1A68374B5B689A4225D1B8
:1002AC00354B5A68344B9B689A421FD1324BDA68F3
:1002BC00314B9B689A420DD02F4B9B682E4AD360D2
:1002CC002D4B9B68002B11D1FFF77CFF294BC822CB
:1002DC001A600BE0274B1B68013B264A1360254B29
:1002EC001B68002B02DC244B0122DA60234B5B6879
:1002FC00224A1360214B9B68204A53604FF4004103
:10030C001B4802F099F803461A461C4B9A601B4B8B
:10031C001A681A4B5B689A4225D1184B5A68174BCE
:10032C009B689A421FD1154BDA68144B9B689A4212
:10033C000DD0124B9B68114AD360104B9B68002B5D
:10034C0011D1FFF74BFF0B4BC8221A600BE0094B86
:10035C001B68013B074A1360064B1B68002B02DC31
:10036C00064B0122DA6000BF80BD00BF00000020F8
:10037C00000C014030000020100000202000002064
:10038C0080B500AF6D4B1B68032B00F2CC8001A233
:10039C0052F823F0B10300080D04000867040008AC
:1003AC00CD04000800220821654802F05CF8012207
:1003BC001021634802F057F801222021604802F016
:1003CC0052F801224FF480515D4802F04CF85D4B1D
:1003DC001B680C2B03D1002000F0DCFCA5E0594B72
:1003EC001B680D2B03D1002000F0D4FC9DE0554B75
:1003FC001B680E2B40F09980002000F0CBFC94E0A1
:10040C00012208214E4802F02EF8002210214C48FF
:10041C0002F029F801222021494802F024F8012297
:10042C004FF48051464802F01EF8464B1B680C2BCB
:10043C0003D1022000F0AEFC79E0424B1B680D2B7F
:10044C0003D1032000F0A6FC71E03E4B1B680E2B81
:10045C006DD1042000F09EFC69E00122082138488F
:10046C0002F001F801221021354801F0FCFF0022B6
:10047C002021334801F0F7FF01224FF4805130481E
:10048C0001F0F1FF2F4B1B680C2B05D12E4B1B6879
:10049C00184600F0F1FA4CE02A4B1B680D2B05D1E5
:1004AC002A4B1B68184600F0E7FA42E0254B1B6804
:1004BC000E2B3ED1264B1B68184600F0DDFA38E0B7
:1004CC00012208211E4801F0CEFF012210211C48F8
:1004DC0001F0C9FF01222021194801F0C4FF0022BC
:1004EC004FF48051164801F0BEFF164B1B680C2BC5
:1004FC0005D1154B5B68184600F04CFC1BE0114B0A
:10050C001B680D2B05D1114B5B68184600F042FCA3
:10051C0011E00C4B1B680E2B0DD10D4B5B68184674
:10052C0000F038FC07E000BF06E000BF04E000BFAD
:10053C0002E000BF00E000BF00BF80BDC40000208F
:10054C00000C014040000020440000204C00002022
:10055C005400002080B500AF01224FF48071164882
:10056C0001F081FF01224FF48061134801F07BFF01
:10057C0001224FF40071104801F075FF01224FF475
:10058C0000610D4801F06FFF012201210A4801F0C2
:10059C006AFF01224FF40041084801F064FF012278
:1005AC000221054801F05FFF01220421024801F0FD
:1005BC005AFF00BF80BD00BF000C01400008014085
:1005CC0080B500AF01224021154801F04CFF0122FB
:1005DC008021134801F047FF01224FF4806110483D
:1005EC0001F041FF01224FF400610D4801F03BFF87
:1005FC00012201210A4801F036FF01224FF400418B
:10060C00084801F030FF01220221054801F02BFFC0
:10061C0001220421024801F026FF00BF80BD00BF6B
:10062C00000C01400008014080B500AF01224021C0
:10063C00154801F018FF01228021134801F013FF27
:10064C0001224FF48071104801F00DFF01224FF48C
:10065C0000710D4801F007FF012201210A4801F049
:10066C0002FF01224FF40041084801F0FCFE012278
:10067C000221054801F0F7FE01220421024801F095
:10068C00F2FE00BF80BD00BF000C0140000801401D
:10069C0080B500AFA94B1B680A3B042B00F2CF813D
:1006AC0001A252F823F000BFC90600086907000830
:1006BC00A1070008730800087109000801224021F5
:1006CC009F4801F0D0FE012280219D4801F0CBFE15
:1006DC0001224FF480619A4801F0C5FE01224FF4CB
:1006EC000061974801F0BFFE01224FF480719448DD
:1006FC0001F0B9FE01224FF40071914801F0B3FEF4
:10070C00012201218E4801F0AEFE01224FF400417E
:10071C008C4801F0A8FE01220221894801F0A3FEB9
:10072C0001220421864801F09EFE01220821844802
:10073C0001F099FE01221021814801F094FE012262
:10074C0020217F4801F08FFE01224FF480517C481C
:10075C0001F089FE794B0B221A6079E100F0F0FE72
:10076C00FFF7EEFC0346012B40F06B81734B0C2220
:10077C001A60754B00221A60FA2001F039FA012236
:10078C0040216F4801F06FFE012280216C4801F07E
:10079C006AFE56E16D4B1B68012B10D16A4B1B682E
:1007AC000133694A1360684B1B68032B02DD664BEF
:1007BC0000221A60FFF7E4FDFA2001F019FAFFF7A6
:1007CC00C9FE634B1B68012B0BD140215C4801F027
:1007DC0062FE80215A4801F05EFE4FF4FA6001F08F
:1007EC00D3F9FFF7BFFC0346012B04D1594B5B68CF
:1007FC000133584A5360574B5B68092B0EDD554B40
:10080C001B680133534A1360524B00225A60514B00
:10081C001B68092B02DD4F4B00221A60FFF7B4FC5A
:10082C000346012B0BD14B4B1A6813469B00134408
:10083C005B001A46474B5B681344474A1360FFF74B
:10084C007FFC0346012B40F0FE803C4B0D221A60CE
:10085C004FF4FA6001F098F93B4B00221A60FA2031
:10086C0001F0C6F9EFE0FFF7ABFE384B1B68012B2C
:10087C0010D1354B1B680133334A1360324B1B6864
:10088C00032B02DD304B00221A60FFF779FDFA20B2
:10089C0001F0AEF92E4B1B68012B0DD14FF480717A
:1008AC00274801F0F8FD4FF40071254801F0F3FDE5
:1008BC004FF4FA6001F068F9FFF754FC0346012B82
:1008CC0004D1264B5B680133244A5360234B5B688D
:1008DC00092B0EDD214B1B680133204A13601F4B83
:1008EC0000225A601D4B1B68092B02DD1B4B00229A
:1008FC001A60FFF749FC0346012B0BD1174B1A6802
:10090C0013469B0013445B001A46144B5B6813445C
:10091C00134A1360FFF714FC0346012B40F095803B
:10092C00064B0E221A604FF4FA6001F02DF9064BBB
:10093C0000221A60FA2001F05BF986E040000020EA
:10094C00000C014000080140C40000203C010020C4
:10095C002C01002044000020340000204C0000201A
:10096C0038000020FFF760FE3A4B1B68012B10D1BA
:10097C00394B1B680133384A1360374B1B68032B08
:10098C0002DD354B00221A60FFF7FAFCFA2001F069
:10099C002FF9324B1B68012B0DD14FF4806130487D
:1009AC0001F079FD4FF400612D4801F074FD4FF416
:1009BC00FA6001F0E9F8FFF7D5FB0346012B04D1EF
:1009CC00284B5B680133274A5360264B5B68092B25
:1009DC000EDD244B1B680133224A1360214B00228D
:1009EC005A60204B1B68092B02DD1E4B00221A603B
:1009FC00FFF7CAFB0346012B0BD11A4B1A6813469F
:100A0C009B0013445B001A46164B5B681344164A52
:100A1C001360FFF795FB0346012B18D1134B0B22E8
:100A2C001A60134B01221A60124B05221A604FF404
:100A3C00FA6001F0A9F8FA2001F0C0F807E000BF55
:100A4C0006E000BF04E000BF02E000BF00E000BF12
:100A5C0000BF80BD3C010020C40000202C01002000
:100A6C00000C0140540000203C00002040000020FD
:100A7C00C8000020CC00002080B582B000AF7860A8
:100A8C007B68092B00F2808101A252F823F000BF91
:100A9C00C50A00080D0B0008550B00089D0B00083B
:100AAC00E50B00082D0C0008750C0008BD0C0008A7
:100ABC00050D00084D0D000800220221B44801F07C
:100ACC00D2FC00220421B24801F0CDFC0022082106
:100ADC00AF4801F0C8FC00221021AD4801F0C3FC66
:100AEC0000222021AA4801F0BEFC00224021A84887
:100AFC0001F0B9FC01228021A54801F0B4FC43E1CE
:100B0C0001220221A24801F0AEFC00220421A048DF
:100B1C0001F0A9FC002208219D4801F0A4FC01224F
:100B2C0010219B4801F09FFC01222021984801F0E4
:100B3C009AFC01224021964801F095FC012280216B
:100B4C00934801F090FC1FE100220221904801F033
:100B5C008AFC002204218E4801F085FC0122082128
:100B6C008B4801F080FC00221021894801F07BFCAD
:100B7C0000222021864801F076FC01224021844885
:100B8C0001F071FC00228021814801F06CFCFBE03B
:100B9C00002202217E4801F066FC002204217C48E0
:100BAC0001F061FC00220821794801F05CFC002274
:100BBC001021774801F057FC01222021744801F0E4
:100BCC0052FC01224021724801F04DFC0022802190
:100BDC006F4801F048FCD7E0012202216C4801F07B
:100BEC0042FC002204216A4801F03DFC002208214D
:100BFC00674801F038FC01221021654801F033FCF4
:100C0C0001222021624801F02EFC00224021604884
:100C1C0001F029FC002280215D4801F024FCB3E0A6
:100C2C00002202215A4801F01EFC012204215848DE
:100C3C0001F019FC00220821554801F014FC002297
:100C4C001021534801F00FFC01222021504801F0E3
:100C5C000AFC002240214E4801F005FC00228021B4
:100C6C004B4801F000FC8FE000220221484801F0C3
:100C7C00FAFB01220421464801F0F5FB0022082171
:100C8C00434801F0F0FB00221021414801F0EBFB3E
:100C9C00002220213E4801F0E6FB002240213C4886
:100CAC0001F0E1FB00228021394801F0DCFB6BE014
:100CBC0000220221364801F0D6FB002204213448E0
:100CCC0001F0D1FB00220821314801F0CCFB0122BC
:100CDC0010212F4801F0C7FB012220212C4801F0E4
:100CEC00C2FB012240212A4801F0BDFB01228021D8
:100CFC00274801F0B8FB47E000220221244801F00C
:100D0C00B2FB00220421224801F0ADFB0022082195
:100D1C001F4801F0A8FB002210211D4801F0A3FB85
:100D2C00002220211A4801F09EFB00224021184885
:100D3C0001F099FB00228021154801F094FB23E07F
:100D4C0000220221124801F08EFB002204211048DF
:100D5C0001F089FB002208210D4801F084FB0022E0
:100D6C0010210B4801F07FFB01222021084801F0E3
:100D7C007AFB00224021064801F075FB00228021FD
:100D8C00034801F070FB00BF00BF0837BD4680BDB3
:100D9C000008014080B582B000AF78607B68092BF9
:100DAC0000F2C98101A252F823F000BFE10D000846
:100DBC00370E00088D0E0008E30E0008390F0008EE
:100DCC008F0F0008E50F00083B1000089110000879
:100DDC00ED10000800224FF48071C04801F043FB75
:100DEC0000224FF40071BD4801F03DFB00224FF48E
:100DFC008061BA4801F037FB00224FF40061B7481C
:100E0C0001F031FB00224FF48051B44801F02BFB70
:100E1C0000224FF40051B14801F025FB01224FF4A0
:100E2C008041AE4801F01FFB85E101224FF4807137
:100E3C00AA4801F018FB00224FF40071A74801F0FA
:100E4C0012FB00224FF48061A44801F00CFB01223C
:100E5C004FF40061A14801F006FB01224FF48051D0
:100E6C009E4801F000FB01224FF400519B4801F019
:100E7C00FAFA01224FF48041984801F0F4FA5AE151
:100E8C0000224FF48071954801F0EDFA00224FF4E6
:100E9C000071924801F0E7FA01224FF480618F480B
:100EAC0001F0E1FA00224FF400618C4801F0DBFA0A
:100EBC0000224FF48051894801F0D5FA01224FF4F9
:100ECC000051864801F0CFFA00224FF4804183484C
:100EDC0001F0C9FA2FE100224FF480717F4801F034
:100EEC00C2FA00224FF400717C4801F0BCFA0022D7
:100EFC004FF48061794801F0B6FA00224FF400619A
:100F0C00764801F0B0FA01224FF48051734801F099
:100F1C00AAFA01224FF40051704801F0A4FA002201
:100F2C004FF480416D4801F09EFA04E101224FF428
:100F3C0080716A4801F097FA00224FF400716748FB
:100F4C0001F091FA00224FF48061644801F08BFAB1
:100F5C0001224FF40061614801F085FA01224FF43F
:100F6C0080515E4801F07FFA00224FF400515B483B
:100F7C0001F079FA00224FF48041584801F073FADD
:100F8C00D9E000224FF48071544801F06CFA012230
:100F9C004FF40071514801F066FA00224FF4806161
:100FAC004E4801F060FA00224FF400614B4801F00A
:100FBC005AFA01224FF48051484801F054FA0022A9
:100FCC004FF40051454801F04EFA00224FF4804195
:100FDC00424801F048FAAEE000224FF480713F48DD
:100FEC0001F041FA01224FF400713C4801F03BFA48
:100FFC0000224FF48061394801F035FA00224FF499
:10100C000061364801F02FFA00224FF4805133482A
:10101C0001F029FA00224FF40051304801F023FA74
:10102C0000224FF480412D4801F01DFA83E000228C
:10103C004FF48071294801F016FA00224FF4007128
:10104C00264801F010FA00224FF48061234801F089
:10105C000AFA01224FF40061204801F004FA01223F
:10106C004FF480511D4801F0FEF901224FF400515C
:10107C001A4801F0F8F901224FF48041174801F0A9
:10108C00F2F958E000224FF48071144801F0EBF9AA
:10109C0000224FF40071114801F0E5F900224FF4E1
:1010AC0080610E4801F0DFF900224FF400610B481B
:1010BC0001F0D9F900224FF48051084801F0D3F91E
:1010CC0000224FF40051054801F0CDF900224FF4F5
:1010DC008041024801F0C7F92DE000BF0008014033
:1010EC0000224FF48071164801F0BDF900224FF434
:1010FC000071134801F0B7F900224FF480611048D9
:10110C0001F0B1F900224FF400610D4801F0ABF988
:10111C0001224FF480510A4801F0A5F900224FF446
:10112C000051074801F09FF900224FF48041044818
:10113C0001F099F900BF00BF0837BD4680BD00BF64
:10114C000008014080B400AF494B1B68042B2AD027
:10115C00042B3ADC022B02D0032B12D035E0454B8A
:10116C005B68013B434A5360424B5B68002B2EDAB1
:10117C00404B09225A603F4B1B68013B3D4A1360B0
:10118C0025E03D4B5B68013B3B4A53603A4B5B6847
:10119C00002B1EDA384B09225A60374B1B68013B77
:1011AC00354A136015E0354B5B68013B334A53609D
:1011BC00324B5B68002B0EDA304B09225A602F4BF6
:1011CC001B68013B2D4A136005E000BF04E000BF23
:1011DC0002E000BF00E000BF294B1B68082B2AD09F
:1011EC00082B3ADC062B02D0072B12D035E0254B0E
:1011FC005B68013B234A5360224B5B68002B2EDA61
:10120C00204B09225A601F4B1B68013B1D4A13607F
:10121C0025E01D4B5B68013B1B4A53601A4B5B6816
:10122C00002B1EDA184B09225A60174B1B68013B26
:10123C00154A136015E0154B5B68013B134A53606C
:10124C00124B5B68002B0EDA104B09225A600F4BC5
:10125C001B68013B0D4A136005E000BF04E000BFB2
:10126C0002E000BF00E000BF00BFBD4680BC70477D
:10127C00C8000020940000209C000020A400002046
:10128C00CC000020AC000020B4000020BC000020EA
:10129C0080B500AF9F4B1B68032B00F2378101A276
:1012AC0052F823F0C112000857130008ED13000880
:1012BC008314000800220121974801F0D4F8012280
:1012CC004FF40041954801F0CEF8012202219248DA
:1012DC0001F0C9F8012204218F4801F0C4F8002262
:1012EC0008218D4801F0BFF8012210218A4801F035
:1012FC00BAF801222021884801F0B5F801224FF4F8
:10130C008051854801F0AFF8854B1B68022B05D145
:10131C00844B1B681846FFF7AFFB12E0804B1B6831
:10132C00032B05D1804B1B681846FFF7A5FB08E083
:10133C007B4B1B68042B04D17C4B1B681846FFF7B6
:10134C009BFB0020FFF726FDE1E001220121724802
:10135C0001F089F800224FF40041704801F083F845
:10136C00012202216C4801F07EF8012204216A4816
:10137C0001F079F801220821674801F074F8002285
:10138C001021654801F06FF801222021624801F01C
:10139C006AF801224FF480515F4801F064F8604B09
:1013AC001B68022B05D15F4B5B681846FFF764FB8B
:1013BC0012E05B4B1B68032B05D15B4B5B6818463B
:1013CC00FFF75AFB08E0564B1B68042B04D1574B14
:1013DC005B681846FFF750FB0120FFF7DBFC96E03B
:1013EC00012201214C4801F03EF801224FF400414A
:1013FC004A4801F038F800220221474801F033F83E
:10140C0001220421444801F02EF800220821424810
:10141C0001F029F8012210213F4801F024F80122A3
:10142C0020213D4801F01FF801224FF480513A4829
:10143C0001F019F83E4B1B68062B05D13D4B1B6880
:10144C001846FFF719FB12E0394B1B68072B05D127
:10145C00394B1B681846FFF70FFB08E0344B1B6831
:10146C00082B04D1354B1B681846FFF705FB0020F1
:10147C00FFF790FC4BE001220121274800F0F3FF1D
:10148C0001224FF40041254800F0EDFF012202211A
:10149C00214800F0E8FF002204211F4800F0E3FF80
:1014AC00012208211C4800F0DEFF002210211A48FE
:1014BC0000F0D9FF01222021174800F0D4FF0122AF
:1014CC004FF48051144800F0CEFF194B1B68062BCB
:1014DC0005D1184B5B681846FFF7CEFA12E0144B97
:1014EC001B68072B05D1144B5B681846FFF7C4FA31
:1014FC0008E00F4B1B68082B04D1104B5B68184697
:10150C00FFF7BAFA0120FFF745FC00E000BF00BF6F
:10151C0080BD00BFD0000020000C0140000801403D
:10152C00C8000020940000209C000020A400002093
:10153C00CC000020AC000020B4000020BC00002037
:10154C0080B500AF954B1B68013B032B00F2B180BB
:10155C0001A252F823F000BF75150008E115000830
:10156C002B16000875160008012240218C4800F04B
:10157C007AFF01224FF48071894800F074FF012238
:10158C004FF48061864800F06EFF844B02221A6093
:10159C00844B1B684FF47A7202FB03F3184600F07D
:1015AC00BFFA814B1B68814A13607F4B5B687F4A93
:1015BC0053607F4B1B687F4A13607D4B5B687D4A91
:1015CC0053607D4B1B687D4A13607B4B5B687B4A89
:1015DC00536075E000224021714800F044FF012265
:1015EC004FF480716E4800F03EFF01224FF4806191
:1015FC006B4800F038FF6D4B1B68002B5BD16B4BBD
:10160C005B68002B57D1654B03221A60664B1B6835
:10161C00664A1360644B5B68644A53604BE001227A
:10162C0040215F4800F01FFF00224FF480715C489E
:10163C0000F019FF01224FF48061594800F013FFAC
:10164C005C4B1B68002B38D15A4B5B68002B34D198
:10165C00524B04221A60564B1B68564A1360544B6B
:10166C005B68544A536028E0012240214C4800F04A
:10167C00FAFE01224FF48071494800F0F4FE00227A
:10168C004FF48061464800F0EEFE4C4B1B68002B7B
:10169C0015D14A4B5B68002B11D1404B02221A60CA
:1016AC00454B1B68454A1360434B5B68434A536088
:1016BC0005E000BF04E000BF02E000BF00E000BF97
:1016CC003F4B1B68053B032B00F2CE8001A252F866
:1016DC0023F000BFF11600085D170008E1170008A1
:1016EC002B180008012280212D4800F0BCFE01229D
:1016FC004FF400712A4800F0B6FE01224FF400614D
:10170C00274800F0B0FE2E4B07221A602D4B1B68A9
:10171C004FF47A7202FB03F3184600F01BFA224BCB
:10172C001B68294A1360204B5B68274A5360204B87
:10173C001B68264A13601E4B5B68244A53601E4B81
:10174C001B68234A13601C4B5B68214A536092E070
:10175C0000228021124800F086FE01224FF4007115
:10176C000F4800F080FE01224FF400610C4800F09D
:10177C007AFE154B1B68002B78D1134B5B68002B42
:10178C0074D10F4B07221A60074B1B680E4A13606B
:10179C00054B5B680C4A536068E000BFC800002032
:1017AC00000C014034000020440000209400002074
:1017BC004C0000209C00002054000020A4000020BD
:1017CC00CC00002038000020AC000020B400002029
:1017DC00BC00002001228021334800F044FE00228E
:1017EC004FF40071304800F03EFE01224FF40061CE
:1017FC002D4800F038FE2D4B1B68002B38D12B4B9D
:10180C005B68002B34D12A4B08221A60294B1B68C9
:10181C00264A1360274B5B68244A536028E0012258
:10182C008021214800F01FFE01224FF400711E4858
:10183C0000F019FE00224FF400611B4800F013FE6B
:10184C001D4B1B68002B15D11B4B5B68002B11D15A
:10185C00174B06221A60194B1B68174A1360174B5B
:10186C005B68154A536005E000BF04E000BF02E06E
:10187C0000BF00E000BFFFF70BFD114B1B68012BF5
:10188C0010D1104B1B6801330E4A13600D4B1B68B3
:10189C00032B04DD0B4B00221A60FFF753FCFA20DC
:1018AC0000F08CF900BF80BD000C0140B40000209A
:1018BC00CC0000204C000020BC0000205400002074
:1018CC0034010020D000002080B500AF00F0C8FA31
:1018DC0000F028F800F0AEF800F060F80C4801F0C9
:1018EC002BFA0C4B0A221A600B4B01221A600B4B81
:1018FC0005221A604FF4FA6000F046F9FA2000F065
:10190C005DF9074B00221A60FEF7C2FEFCE700BF30
:10191C00D400002040000020C8000020CC00002093
:10192C00D000002080B590B000AF07F1180328223A
:10193C000021184601F0B8FD3B1D00221A605A60C8
:10194C009A60DA601A610223BB610123BB62102327
:10195C00FB6200237B6307F11803184600F0B4FD0B
:10196C000346002B01D000F0D5F80F237B60002339
:10197C00BB600023FB6000233B6100237B613B1DAC
:10198C000021184601F022F80346002B01D000F08C
:10199C00C1F800BF4037BD4680BD000080B586B0A1
:1019AC0000AF07F1080300221A605A609A60DA60EF
:1019BC003B4600221A605A601D4B4FF080421A6061
:1019CC001B4B41F63F725A60194B00229A60184B20
:1019DC000922DA60164B00221A61154B00229A611B
:1019EC00134801F059F90346002B01D000F092F88E
:1019FC004FF48053BB6007F1080319460C4801F003
:101A0C00EFFA0346002B01D000F084F800233B6072
:101A1C0000237B603B461946054801F0B7FC0346A2
:101A2C00002B01D000F076F800BF1837BD4680BD02
:101A3C00D400002080B586B000AF07F10803002267
:101A4C001A605A609A60DA60294B9B69284A43F005
:101A5C0004039361264B9B6903F004037B607B6852
:101A6C00234B9B69224A43F008039361204B9B69EB
:101A7C0003F008033B603B6800224FF6FE711D48E3
:101A8C0000F0F1FC002241F6FF711B4800F0EBFC6A
:101A9C004FF6FE73BB600123FB6000233B61022306
:101AAC007B6107F108031946124800F049FB41F627
:101ABC00FF73BB600123FB6000233B6102237B614E
:101ACC0007F1080319460C4800F03AFB4FF4604349
:101ADC00BB600023FB6001233B6107F1080319463F
:101AEC00054800F02DFB00BF1837BD4680BD00BF78
:101AFC000010024000080140000C014080B582B08B
:101B0C0000AF786000F08EF8FEF774FB00BF08376A
:101B1C00BD4680BD80B400AF72B600BFFEE70000CA
:101B2C0080B483B000AF7860074B1B687A6892FB77
:101B3C00F3F3064A1360064B00221A6000BF0C3701
:101B4C00BD4680BC704700BF5C0000202001002017
:101B5C001C01002080B483B000AF7860074B1B6879
:101B6C007A6892FBF3F3064A1360064B00221A6064
:101B7C0000BF0C37BD4680BC704700BF5C00002026
:101B8C00280100202401002080B483B000AF7860CD
:101B9C00074B1B687A6892FBF3F3064A1360064BFB
:101BAC0000221A6000BF0C37BD4680BC704700BFD6
:101BBC005C000020300100202C01002080B483B098
:101BCC0000AF7860074B1B687A6892FBF3F3064A08
:101BDC001360064B00221A6000BF0C37BD4680BC58
:101BEC00704700BF5C000020380100203401002049
:101BFC0080B483B000AF7860074B1B687A6892FBA7
:101C0C00F3F3064A1360064B00221A6000BF0C3730
:101C1C00BD4680BC704700BF5C0000204001002026
:101C2C003C01002080B400AF294B1B68002B0BDD5E
:101C3C00274B1B68013B264A1360254B1B68002B66
:101C4C0002DC244B01221A60234B1B68002B0BDD9A
:101C5C00214B1B68013B204A13601F4B1B68002B58
:101C6C0002DC1E4B01221A601D4B1B68002B0BDD86
:101C7C001B4B1B68013B1A4A1360194B1B68002B4A
:101C8C0002DC184B01221A60174B1B68002B0BDD72
:101C9C00154B1B68013B144A1360134B1B68002B3C
:101CAC0002DC124B01221A60114B1B68002B0BDD5E
:101CBC000F4B1B68013B0E4A13600D4B1B68002B2E
:101CCC0002DC0C4B01221A6000BFBD4680BC704781
:101CDC00200100201C0100202801002024010020EC
:101CEC00300100202C01002038010020340100209C
:101CFC00400100203C01002080B485B000AF154BA2
:101D0C009B69144A43F001039361124B9B6903F0E6
:101D1C000103BB60BB680F4BDB690E4A43F0805379
:101D2C00D3610C4BDB6903F080537B607B680A4BFF
:101D3C005B68FB60FB6823F0E063FB60FB6843F0CF
:101D4C008063FB60044AFB68536000BF1437BD46D8
:101D5C0080BC7047001002400000014080B584B088
:101D6C0000AF78607B681B68B3F1804F13D10C4BCC
:101D7C00DB690B4A43F00103D361094BDB6903F0C8
:101D8C000103FB60FB68002200211C2000F0A1F97C
:101D9C001C2000F0BAF900BF1037BD4680BD00BF53
:101DAC000010024080B400AFFEE780B400AFFEE745
:101DBC0080B400AFFEE780B400AFFEE780B400AFA4
:101DCC00FEE780B400AF00BFBD4680BC704780B456
:101DDC0000AF00BFBD4680BC704780B400AF00BFF1
:101DEC00BD4680BC704780B500AF00F07FF800BFE7
:101DFC0080BD000080B500AF024800F0E9FF00BFD5
:101E0C0080BD00BFD400002080B400AF00BFBD4631
:101E1C0080BC70470C480D490D4A002302E0D45891
:101E2C00C4500433C4188C42F9D30A4A0A4C002318
:101E3C0001E013600432A242FBD3FFF7E5FF01F08F
:101E4C000FFBFFF741FD7047000000206C000020E5
:101E5C00043500086C00002048010020FEE700005B
:101E6C0080B500AF084B1B68074A43F010031360A2
:101E7C00032000F023F90F2000F008F8FFF73CFFD7
:101E8C000023184680BD00BF0020024080B582B000
:101E9C0000AF7860124B1A68124B1B7819464FF43E
:101EAC007A73B3FBF1F3B2FBF3F3184600F03BF992
:101EBC000346002B01D001230EE07B680F2B0AD8C0
:101ECC00002279684FF0FF3000F003F9064A7B6876
:101EDC001360002300E0012318460837BD4680BD7F
:101EEC0060000020680000206400002080B400AF77
:101EFC00054B1B781A46054B1B681344034A1360A9
:101F0C0000BFBD4680BC7047680000204401002023
:101F1C0080B400AF024B1B681846BD4680BC7047AE
:101F2C004401002080B485B000AF78607B6803F07A
:101F3C000703FB600C4BDB68BB60BA684FF6FF0312
:101F4C001340BB60FB681A02BB68134343F0BF63CA
:101F5C0043F40033BB60044ABB68D36000BF143742
:101F6C00BD4680BC704700BF00ED00E080B400AF00
:101F7C00044BDB681B0A03F007031846BD4680BC04
:101F8C00704700BF00ED00E080B483B000AF0346A3
:101F9C00FB7197F90730002B0BDBFB7903F01F0269
:101FAC00064997F907305B09012000FA02F241F863
:101FBC00232000BF0C37BD4680BC704700E100E019
:101FCC0080B483B000AF03463960FB7197F90730DA
:101FDC00002B0ADB3B68DAB20C4997F90730120187
:101FEC00D2B20B4483F800230AE03B68DAB208490A
:101FFC00FB7903F00F03043B1201D2B20B441A76A7
:10200C0000BF0C37BD4680BC704700BF00E100E04C
:10201C0000ED00E080B489B000AFF860B9607A6080
:10202C00FB6803F00703FB61FB69C3F10703042B97
:10203C0028BF0423BB61FB690433062B02D9FB695F
:10204C00033B00E000237B614FF0FF32BB6902FAD7
:10205C0003F3DA43BB681A407B699A404FF0FF31B7
:10206C007B6901FA03F3D9437B680B401343184691
:10207C002437BD4680BC704780B582B000AF786015
:10208C007B68013BB3F1807F01D301230FE00A4A47
:10209C007B68013B53600F214FF0FF30FFF790FF3F
:1020AC00054B00229A60044B07221A600023184645
:1020BC000837BD4680BD00BF10E000E080B582B09F
:1020CC0000AF78607868FFF72DFF00BF0837BD467A
:1020DC0080BD80B586B000AF0346B9607A60FB73F3
:1020EC0000237B61FFF742FF78617A68B9687869F1
:1020FC00FFF790FF024697F90F3011461846FFF78D
:10210C005FFF00BF1837BD4680BD80B582B000AF01
:10211C000346FB7197F907301846FFF735FF00BFF0
:10212C000837BD4680BD80B582B000AF7860786856
:10213C00FFF7A2FF034618460837BD4680BD0000D6
:10214C0080B48BB000AF7860396000237B620023D1
:10215C003B6261E101227B6A02FA03F3FB613B689B
:10216C001B68FA691340BB61BA69FB699A4240F07B
:10217C0050813B685B68974A93425ED0954A934284
:10218C0075D8954A934258D0934A93426FD8934A44
:10219C00934252D0914A934269D8914A93424CD07F
:1021AC008F4A934263D88F4A934246D08D4A9342CA
:1021BC005DD8122B2AD8122B59D801A252F823F031
:1021CC00472200082122000833220008752200084B
:1021DC007B2200087B2200087B2200087B2200085F
:1021EC007B2200087B2200087B2200087B2200084F
:1021FC007B2200087B2200087B2200087B2200083F
:10220C007B220008292200083D220008764A9342CE
:10221C0013D02CE03B68DB683B6229E03B68DB6851
:10222C0004333B6224E03B68DB6808333B621FE00D
:10223C003B68DB680C333B621AE03B689B68002B05
:10224C0002D104233B6213E03B689B68012B05D150
:10225C0008233B627B68FA691A6109E008233B6238
:10226C007B68FA695A6103E000233B6200E000BF1F
:10227C00BB69FF2B01D87B6801E07B6804337B6171
:10228C00BB69FF2B02D87B6A9B0002E07B6A083B90
:10229C009B003B617B691A680F213B6901FA03F3D0
:1022AC00DB431A40396A3B6901FA03F31A437B6931
:1022BC001A603B685B6803F08053002B00F0A98028
:1022CC004A4B9B69494A43F001039361474B9B6915
:1022DC0003F00103BB60BB68454A7B6A9B08023371
:1022EC0052F82330FB607B6A03F003039B000F2240
:1022FC0002FA03F3DB43FA681340FB607B683D4A48
:10230C0093420DD07B683C4A934207D07B683B4A92
:10231C00934201D1022304E0032302E0012300E0F5
:10232C0000237A6A02F0030292009340FA68134386
:10233C00FB602F497B6A9B080233FA6841F8232023
:10234C003B685B6803F48033002B06D02C4B1A6877
:10235C002B49BB6913430B6006E0294B1A68BB6918
:10236C00DB43274913400B603B685B6803F4003385
:10237C00002B06D0224B5A682149BB6913434B6092
:10238C0006E01F4B5A68BB69DB431D4913404B6089
:10239C003B685B6803F48013002B06D0184B9A68DB
:1023AC001749BB6913438B6006E0154B9A68BB69F0
:1023BC00DB43134913408B603B685B6803F40013E9
:1023CC00002B1FD00E4BDA680D49BB691343CB6051
:1023DC001FE000BF0000321000003110000022107E
:1023EC00000021100000121000001110001002401B
:1023FC000000014000080140000C014000100140A9
:10240C00000401400B4BDA68BB69DB4309491340FC
:10241C00CB607B6A01337B623B681A687B6A22FA69
:10242C0003F3002B7FF496AE00BF00BF2C37BD46E4
:10243C0080BC70470004014080B485B000AF786068
:10244C000B467B807B689A687B881340002B02D0FC
:10245C000123FB7301E00023FB73FB7B184614374D
:10246C00BD4680BC704780B483B000AF78600B462B
:10247C007B8013467B707B78002B03D07A887B683B
:10248C001A6103E07B881A047B681A6100BF0C3761
:10249C00BD4680BC704780B485B000AF78600B46F9
:1024AC007B807B68DB68FB607A88FB6813401A04CE
:1024BC00FB68D9437B880B401A437B681A6100BFC9
:1024CC001437BD4680BC704780B586B000AF7860CD
:1024DC007B68002B01D1012372E27B681B6803F03F
:1024EC000103002B00F08780924B5B6803F00C0318
:1024FC00042B0CD08F4B5B6803F00C03082B12D110
:10250C008C4B5B6803F48033B3F5803F0BD1894B64
:10251C001B6803F40033002B6CD07B685B68002BCA
:10252C0068D101234CE27B685B68B3F5803F06D130
:10253C00804B1B687F4A43F4803313602EE07B682A
:10254C005B68002B0CD17B4B1B687A4A23F48033DD
:10255C001360784B1B68774A23F4802313601DE0CB
:10256C007B685B68B3F5A02F0CD1724B1B68714A6A
:10257C0043F4802313606F4B1B686E4A43F4803323
:10258C0013600BE06B4B1B686A4A23F480331360B7
:10259C00684B1B68674A23F4802313607B685B6875
:1025AC00002B13D0FFF7B4FC386108E0FFF7B0FC48
:1025BC0002463B69D31A642B01D9032300E25D4B1D
:1025CC001B6803F40033002BF0D014E0FFF7A0FCE1
:1025DC00386108E0FFF79CFC02463B69D31A642B78
:1025EC0001D90323ECE1534B1B6803F40033002B9C
:1025FC00F0D100E000BF7B681B6803F00203002BE6
:10260C0063D04C4B5B6803F00C03002B0BD0494B95
:10261C005B6803F00C03082B1CD1464B5B6803F47E
:10262C008033002B16D1434B1B6803F00203002BA5
:10263C0005D07B681B69012B01D00123C0E13D4B08
:10264C001B6823F0F8027B685B69DB003949134394
:10265C000B603AE07B681B69002B20D0364B0122C3
:10266C001A60FFF755FC386108E0FFF751FC024691
:10267C003B69D31A022B01D90323A1E12D4B1B6813
:10268C0003F00203002BF0D02A4B1B6823F0F80256
:10269C007B685B69DB00274913430B6015E0264B15
:1026AC0000221A60FFF734FC386108E0FFF730FCB9
:1026BC0002463B69D31A022B01D9032380E11D4B3F
:1026CC001B6803F00203002BF0D17B681B6803F03E
:1026DC000803002B3AD07B689B69002B19D0174B51
:1026EC0001221A60FFF714FC386108E0FFF710FCB8
:1026FC0002463B69D31A022B01D9032360E10D4B2F
:10270C005B6A03F00203002BF0D0012000F0A6FA64
:10271C001CE00A4B00221A60FFF7FAFB38610FE04D
:10272C00FFF7F6FB02463B69D31A022B08D90323A9
:10273C0046E100BF001002400000424280044242C9
:10274C00924B5B6A03F00203002BE9D17B681B6898
:10275C0003F00403002B00F0A6800023FB758B4BC9
:10276C00DB6903F08053002B0DD1884BDB69874A62
:10277C0043F08053D361854BDB6903F08053BB601E
:10278C00BB680123FB75824B1B6803F48073002B21
:10279C0018D17F4B1B687E4A43F480731360FFF79C
:1027AC00B7FB386108E0FFF7B3FB02463B69D31A6D
:1027BC00642B01D9032303E1754B1B6803F480736D
:1027CC00002BF0D07B68DB68012B06D16F4B1B6AAA
:1027DC006E4A43F0010313622DE07B68DB68002B2B
:1027EC000CD16A4B1B6A694A23F001031362674BD5
:1027FC001B6A664A23F0040313621CE07B68DB68E7
:10280C00052B0CD1614B1B6A604A43F00403136225
:10281C005E4B1B6A5D4A43F0010313620BE05B4B9A
:10282C001B6A5A4A23F001031362584B1B6A574A1E
:10283C0023F0040313627B68DB68002B15D0FFF7D1
:10284C0067FB38610AE0FFF763FB02463B69D31A6A
:10285C0041F28832934201D90323B1E04B4B1B6AFE
:10286C0003F00203002BEED014E0FFF751FB3861AC
:10287C000AE0FFF74DFB02463B69D31A41F288325E
:10288C00934201D903239BE0404B1B6A03F00203E4
:10289C00002BEED1FB7D012B05D13C4BDB693B4A78
:1028AC0023F08053D3617B68DB69002B00F08780B9
:1028BC00364B5B6803F00C03082B61D07B68DB693B
:1028CC00022B46D1334B00221A60FFF721FB3861F3
:1028DC0008E0FFF71DFB02463B69D31A022B01D916
:1028EC0003236DE0294B1B6803F00073002BF0D120
:1028FC007B681B6AB3F5803F08D1244B5B6823F4DB
:10290C0000327B689B68214913434B601F4B5B680B
:10291C0023F474127B68196A7B685B6A0B431B494E
:10292C0013434B601B4B01221A60FFF7F1FA38611D
:10293C0008E0FFF7EDFA02463B69D31A022B01D9E6
:10294C0003233DE0114B1B6803F00073002BF0D008
:10295C0035E0104B00221A60FFF7DAFA386108E014
:10296C00FFF7D6FA02463B69D31A022B01D903238F
:10297C0026E0064B1B6803F00073002BF0D11EE021
:10298C007B68DB69012B07D1012319E000100240A1
:10299C0000700040600042420B4B5B68FB60FB68C0
:1029AC0003F480327B681B6A9A4206D1FB6803F4FD
:1029BC0070127B685B6A9A4201D0012300E000230D
:1029CC0018461837BD4680BD0010024080B584B053
:1029DC0000AF786039607B68002B01D10123D0E017
:1029EC006A4B1B6803F007033A689A4210D9674B8D
:1029FC001B6823F0070265493B6813430B60634B6C
:102A0C001B6803F007033A689A4201D00123B8E02F
:102A1C007B681B6803F00203002B20D07B681B68CB
:102A2C0003F00403002B05D0594B5B68584A43F460
:102A3C00E06353607B681B6803F00803002B05D030
:102A4C00534B5B68524A43F460535360504B5B6882
:102A5C0023F0F0027B689B684D4913434B607B6805
:102A6C001B6803F00103002B40D07B685B68012BD3
:102A7C0007D1474B1B6803F40033002B15D10123FE
:102A8C007FE07B685B68022B07D1414B1B6803F02E
:102A9C000073002B09D1012373E03D4B1B6803F03D
:102AAC000203002B01D101236BE0394B5B6823F04F
:102ABC0003027B685B68364913434B60FFF728FAC7
:102ACC00F8600AE0FFF724FA0246FB68D31A41F2D9
:102ADC008832934201D9032353E02D4B5B6803F0FA
:102AEC000C027B685B689B009A42EBD1274B1B68FE
:102AFC0003F007033A689A4210D2244B1B6823F068
:102B0C00070222493B6813430B60204B1B6803F000
:102B1C0007033A689A4201D0012332E07B681B68B4
:102B2C0003F00403002B08D0194B5B6823F4E0621C
:102B3C007B68DB68164913434B607B681B6803F0AA
:102B4C000803002B09D0124B5B6823F460527B689E
:102B5C001B69DB000E4913434B6000F021F8024661
:102B6C000B4B5B681B0903F00F030A49CB5C22FA81
:102B7C0003F3094A1360094B1B681846FFF786F9E3
:102B8C00002318461037BD4680BD00BF0020024010
:102B9C0000100240EC3400086000002064000020AB
:102BAC0090B48AB000AF294B3C1D0FCB84E80F00CA
:102BBC0040F201233B800023FB610023BB61002317
:102BCC007B6200237B6100233B62214B5B68FB61D2
:102BDC00FB6903F00C03042B02D0082B03D02BE071
:102BEC001C4B3B622BE0FB699B0C03F00F0328335F
:102BFC003B4413F8243C7B61FB6903F48033002BCA
:102C0C0012D0134B5B685B0C03F0010328333B447D
:102C1C0013F8283CBB617B690E4A03FB02F2BB69CB
:102C2C00B2FBF3F37B6204E07B690B4A02FB03F318
:102C3C007B627B6A3B6202E0064B3B6200BF3B6AF5
:102C4C0018462837BD4690BC704700BFDC340008DE
:102C5C000010024000127A0000093D0080B485B0DB
:102C6C0000AF78600A4B1B680A4AA2FB03235B0A7D
:102C7C007A6802FB03F3FB6000BFFB685A1EFA6024
:102C8C00002BF9D100BF00BF1437BD4680BC704784
:102C9C0060000020D34D621080B582B000AF786028
:102CAC007B68002B01D1012341E07B6893F83D3018
:102CBC00DBB2002B06D17B68002283F83C207868BD
:102CCC00FFF74CF87B68022283F83D207B681A687A
:102CDC007B6804331946104600F06AFA7B680122BF
:102CEC0083F846207B68012283F83E207B68012212
:102CFC0083F83F207B68012283F840207B68012207
:102D0C0083F841207B68012283F842207B680122F2
:102D1C0083F843207B68012283F844207B680122DE
:102D2C0083F845207B68012283F83D200023184658
:102D3C000837BD4680BD000080B485B000AF786018
:102D4C007B6893F83D30DBB2012B01D0012335E0D9
:102D5C007B68022283F83D207B681B68DA687B68FD
:102D6C001B6842F00102DA607B681B68164A9342CA
:102D7C0009D07B681B68B3F1804F04D07B681B685B
:102D8C00124A934211D17B681B689B6803F00703BE
:102D9C00FB60FB68062B10D07B681B681A687B688D
:102DAC001B6842F001021A6007E07B681B681A6816
:102DBC007B681B6842F001021A6000231846143726
:102DCC00BD4680BC704700BF002C01400004004091
:102DDC0080B582B000AF78607B681B681B6903F01C
:102DEC000203022B22D17B681B68DB6803F0020311
:102DFC00022B1BD17B681B686FF002021A617B6887
:102E0C0001221A777B681B689B6903F00303002B74
:102E1C0003D0786800F0B1F905E0786800F0A4F907
:102E2C00786800F0B3F97B6800221A777B681B681E
:102E3C001B6903F00403042B22D17B681B68DB683D
:102E4C0003F00403042B1BD17B681B686FF0040296
:102E5C001A617B6802221A777B681B689B6903F4F2
:102E6C004073002B03D0786800F087F905E0786890
:102E7C0000F07AF9786800F089F97B6800221A77FB
:102E8C007B681B681B6903F00803082B22D17B6845
:102E9C001B68DB6803F00803082B1BD17B681B68DD
:102EAC006FF008021A617B6804221A777B681B6832
:102EBC00DB6903F00303002B03D0786800F05DF9A5
:102ECC0005E0786800F050F9786800F05FF97B68ED
:102EDC0000221A777B681B681B6903F01003102B08
:102EEC0022D17B681B68DB6803F01003102B1BD10D
:102EFC007B681B686FF010021A617B6808221A77D6
:102F0C007B681B68DB6903F44073002B03D0786883
:102F1C0000F033F905E0786800F026F9786800F0E5
:102F2C0035F97B6800221A777B681B681B6903F0F4
:102F3C000103012B0ED17B681B68DB6803F00103D6
:102F4C00012B07D17B681B686FF001021A6178684E
:102F5C00FEF7D4FD7B681B681B6903F08003802B94
:102F6C000ED17B681B68DB6803F08003802B07D1D4
:102F7C007B681B686FF080021A61786800F067FA52
:102F8C007B681B681B6903F04003402B0ED17B68E8
:102F9C001B68DB6803F04003402B07D17B681B6880
:102FAC006FF040021A61786800F0F9F87B681B68D2
:102FBC001B6903F02003202B0ED17B681B68DB6898
:102FCC0003F02003202B07D17B681B686FF02002D5
:102FDC001A61786800F032FA00BF0837BD4680BD30
:102FEC0080B584B000AF786039607B6893F83C3072
:102FFC00012B01D10223B3E07B68012283F83C2032
:10300C007B68022283F83D207B681B689B68FB6011
:10301C00FB6823F07703FB60FB6823F47F43FB60C2
:10302C007B681B68FA689A603B681B68B3F5005FA5
:10303C003ED0B3F5005F00F28780B3F5805F00F0FF
:10304C008580B3F5805F7FD8702B1AD0702B7BD81E
:10305C00602B50D0602B77D8502B3CD0502B73D892
:10306C00402B58D0402B6FD8302B64D0302B6BD8E2
:10307C00202B60D0202B67D8002B5CD0102B5AD083
:10308C0062E07B6818683B6899683B685A683B68E3
:10309C00DB6800F05CF97B681B689B68FB60FB6875
:1030AC0043F07703FB607B681B68FA689A604EE01C
:1030BC007B6818683B6899683B685A683B68DB68B2
:1030CC0000F045F97B681B689A687B681B6842F4C2
:1030DC0080429A603BE07B6818683B6859683B68A3
:1030EC00DB681A4600F0BCF87B681B685021184658
:1030FC0000F013F92BE07B6818683B6859683B6853
:10310C00DB681A4600F0DAF87B681B686021184609
:10311C0000F003F91BE07B6818683B6859683B6852
:10312C00DB681A4600F09CF87B681B684021184647
:10313C0000F0F3F80BE07B681A683B681B681946D3
:10314C00104600F0EAF802E000BF00E000BF7B6828
:10315C00012283F83D207B68002283F83C20002369
:10316C0018461037BD4680BD80B483B000AF786080
:10317C0000BF0C37BD4680BC704780B483B000AF35
:10318C00786000BF0C37BD4680BC704780B483B0FC
:10319C0000AF786000BF0C37BD4680BC704780B470
:1031AC0083B000AF786000BF0C37BD4680BC704761
:1031BC0080B485B000AF786039607B681B68FB60B9
:1031CC007B68254A934207D07B68B3F1804F03D0CC
:1031DC007B68224A934208D1FB6823F07003FB60A2
:1031EC003B685B68FA681343FB607B681A4A93423E
:1031FC0007D07B68B3F1804F03D07B68174A9342AA
:10320C0008D1FB6823F44073FB603B68DB68FA6809
:10321C001343FB60FB6823F080023B685B6913433C
:10322C00FB607B68FA681A603B689A687B68DA62B4
:10323C003B681A687B689A627B68074A934203D1A1
:10324C003B681A697B681A637B6801225A6100BF6C
:10325C001437BD4680BC7047002C01400004004070
:10326C0080B487B000AFF860B9607A60FB681B6A05
:10327C007B61FB681B6A23F00102FB681A62FB6826
:10328C009B693B613B6923F0F0033B617B681B014D
:10329C003A6913433B617B6923F00A037B617A69CA
:1032AC00BB6813437B61FB683A699A61FB687A6976
:1032BC001A6200BF1C37BD4680BC704780B487B013
:1032CC0000AFF860B9607A60FB681B6A23F01002EB
:1032DC00FB681A62FB689B697B61FB681B6A3B613C
:1032EC007B6923F470437B617B681B037A6913430E
:1032FC007B613B6923F0A0033B61BB681B013A690E
:10330C0013433B61FB687A699A61FB683A691A62FC
:10331C0000BF1C37BD4680BC704780B485B000AF81
:10332C00786039607B689B68FB60FB6823F07003F6
:10333C00FB603A68FB68134343F00703FB607B6850
:10334C00FA689A6000BF1437BD4680BC704780B4E1
:10335C0087B000AFF860B9607A603B60FB689B682F
:10336C007B617B6923F47F437B613B681A027B683A
:10337C001A43BB6813437A6913437B61FB687A6910
:10338C009A6000BF1C37BD4680BC704780B485B0C6
:10339C0000AF786039607B6893F83C30012B01D129
:1033AC00022341E07B68012283F83C207B680222E7
:1033BC0083F83D207B681B685B68FB607B681B683F
:1033CC009B68BB60FB6823F07003FB603B681B6869
:1033DC00FA681343FB607B681B68FA685A607B6869
:1033EC001B68144A934209D07B681B68B3F1804F69
:1033FC0004D07B681B68104A93420CD1BB6823F045
:10340C008003BB603B685B68BA681343BB607B6836
:10341C001B68BA689A607B68012283F83D207B6840
:10342C00002283F83C20002318461437BD4680BC8C
:10343C00704700BF002C01400004004080B483B0F2
:10344C0000AF786000BF0C37BD4680BC704780B4BD
:10345C0083B000AF786000BF0C37BD4680BC7047AE
:10346C0070B500260C4D0D4C641BA410A64209D15E
:10347C0000F022F800260A4D0A4C641BA410A64248
:10348C0005D170BD55F8043B98470136EEE755F869
:10349C00043B98470136F2E7FC340008FC34000882
:1034AC00FC3400080035000803460244934200D166
:1034BC00704703F8011BF9E7F8B500BFF8BC08BC6E
:1034CC009E467047F8B500BFF8BC08BC9E467047D6
:1034DC0002030405060708090A0B0C0D0E0F101049
:1034EC0000000000000000000102030406070809A8
:0434FC003101000892
:043500000D010008B1
:1035040001000000010000000100000001000000B3
:1035140001000000010000000100000001000000A3
:103524000100000001000000010000000100000093
:10353400C80000000A0000000500000003000000AD
:103544000100000001000000000000000000000075
:103554000500000000000000030000000A00000055
:0C3564000024F400100000000100000032
:0400000508001E21B0
:00000001FF
